{
  "contractName": "oldPurchasing",
  "abi": [
    {
      "inputs": [
        {
          "internalType": "string",
          "name": "_name",
          "type": "string"
        },
        {
          "internalType": "string",
          "name": "_symbol",
          "type": "string"
        }
      ],
      "stateMutability": "payable",
      "type": "constructor"
    },
    {
      "anonymous": false,
      "inputs": [
        {
          "indexed": true,
          "internalType": "address",
          "name": "_owner",
          "type": "address"
        },
        {
          "indexed": true,
          "internalType": "address",
          "name": "_approved",
          "type": "address"
        },
        {
          "indexed": true,
          "internalType": "uint256",
          "name": "_tokenId",
          "type": "uint256"
        }
      ],
      "name": "Approval",
      "type": "event"
    },
    {
      "anonymous": false,
      "inputs": [
        {
          "indexed": true,
          "internalType": "address",
          "name": "_owner",
          "type": "address"
        },
        {
          "indexed": true,
          "internalType": "address",
          "name": "_operator",
          "type": "address"
        },
        {
          "indexed": false,
          "internalType": "bool",
          "name": "_approved",
          "type": "bool"
        }
      ],
      "name": "ApprovalForAll",
      "type": "event"
    },
    {
      "anonymous": false,
      "inputs": [
        {
          "indexed": true,
          "internalType": "address",
          "name": "previousOwner",
          "type": "address"
        },
        {
          "indexed": true,
          "internalType": "address",
          "name": "newOwner",
          "type": "address"
        }
      ],
      "name": "OwnershipTransferred",
      "type": "event"
    },
    {
      "anonymous": false,
      "inputs": [
        {
          "indexed": true,
          "internalType": "address",
          "name": "_from",
          "type": "address"
        },
        {
          "indexed": true,
          "internalType": "address",
          "name": "_to",
          "type": "address"
        },
        {
          "indexed": true,
          "internalType": "uint256",
          "name": "_tokenId",
          "type": "uint256"
        }
      ],
      "name": "Transfer",
      "type": "event"
    },
    {
      "inputs": [],
      "name": "CANNOT_TRANSFER_TO_ZERO_ADDRESS",
      "outputs": [
        {
          "internalType": "string",
          "name": "",
          "type": "string"
        }
      ],
      "stateMutability": "view",
      "type": "function"
    },
    {
      "inputs": [],
      "name": "NOT_CURRENT_OWNER",
      "outputs": [
        {
          "internalType": "string",
          "name": "",
          "type": "string"
        }
      ],
      "stateMutability": "view",
      "type": "function"
    },
    {
      "inputs": [
        {
          "internalType": "address",
          "name": "_approved",
          "type": "address"
        },
        {
          "internalType": "uint256",
          "name": "_tokenId",
          "type": "uint256"
        }
      ],
      "name": "approve",
      "outputs": [],
      "stateMutability": "nonpayable",
      "type": "function"
    },
    {
      "inputs": [
        {
          "internalType": "address",
          "name": "_owner",
          "type": "address"
        }
      ],
      "name": "balanceOf",
      "outputs": [
        {
          "internalType": "uint256",
          "name": "",
          "type": "uint256"
        }
      ],
      "stateMutability": "view",
      "type": "function"
    },
    {
      "inputs": [
        {
          "internalType": "uint256",
          "name": "_tokenId",
          "type": "uint256"
        }
      ],
      "name": "getApproved",
      "outputs": [
        {
          "internalType": "address",
          "name": "",
          "type": "address"
        }
      ],
      "stateMutability": "view",
      "type": "function"
    },
    {
      "inputs": [
        {
          "internalType": "address",
          "name": "_owner",
          "type": "address"
        },
        {
          "internalType": "address",
          "name": "_operator",
          "type": "address"
        }
      ],
      "name": "isApprovedForAll",
      "outputs": [
        {
          "internalType": "bool",
          "name": "",
          "type": "bool"
        }
      ],
      "stateMutability": "view",
      "type": "function"
    },
    {
      "inputs": [],
      "name": "name",
      "outputs": [
        {
          "internalType": "string",
          "name": "_name",
          "type": "string"
        }
      ],
      "stateMutability": "view",
      "type": "function"
    },
    {
      "inputs": [],
      "name": "owner",
      "outputs": [
        {
          "internalType": "address",
          "name": "",
          "type": "address"
        }
      ],
      "stateMutability": "view",
      "type": "function"
    },
    {
      "inputs": [
        {
          "internalType": "uint256",
          "name": "_tokenId",
          "type": "uint256"
        }
      ],
      "name": "ownerOf",
      "outputs": [
        {
          "internalType": "address",
          "name": "_owner",
          "type": "address"
        }
      ],
      "stateMutability": "view",
      "type": "function"
    },
    {
      "inputs": [
        {
          "internalType": "address",
          "name": "_from",
          "type": "address"
        },
        {
          "internalType": "address",
          "name": "_to",
          "type": "address"
        },
        {
          "internalType": "uint256",
          "name": "_tokenId",
          "type": "uint256"
        }
      ],
      "name": "safeTransferFrom",
      "outputs": [],
      "stateMutability": "nonpayable",
      "type": "function"
    },
    {
      "inputs": [
        {
          "internalType": "address",
          "name": "_from",
          "type": "address"
        },
        {
          "internalType": "address",
          "name": "_to",
          "type": "address"
        },
        {
          "internalType": "uint256",
          "name": "_tokenId",
          "type": "uint256"
        },
        {
          "internalType": "bytes",
          "name": "_data",
          "type": "bytes"
        }
      ],
      "name": "safeTransferFrom",
      "outputs": [],
      "stateMutability": "nonpayable",
      "type": "function"
    },
    {
      "inputs": [
        {
          "internalType": "address",
          "name": "_operator",
          "type": "address"
        },
        {
          "internalType": "bool",
          "name": "_approved",
          "type": "bool"
        }
      ],
      "name": "setApprovalForAll",
      "outputs": [],
      "stateMutability": "nonpayable",
      "type": "function"
    },
    {
      "inputs": [
        {
          "internalType": "bytes4",
          "name": "_interfaceID",
          "type": "bytes4"
        }
      ],
      "name": "supportsInterface",
      "outputs": [
        {
          "internalType": "bool",
          "name": "",
          "type": "bool"
        }
      ],
      "stateMutability": "view",
      "type": "function"
    },
    {
      "inputs": [],
      "name": "symbol",
      "outputs": [
        {
          "internalType": "string",
          "name": "_symbol",
          "type": "string"
        }
      ],
      "stateMutability": "view",
      "type": "function"
    },
    {
      "inputs": [
        {
          "internalType": "uint256",
          "name": "_tokenId",
          "type": "uint256"
        }
      ],
      "name": "tokenURI",
      "outputs": [
        {
          "internalType": "string",
          "name": "",
          "type": "string"
        }
      ],
      "stateMutability": "view",
      "type": "function"
    },
    {
      "inputs": [
        {
          "internalType": "address",
          "name": "_from",
          "type": "address"
        },
        {
          "internalType": "address",
          "name": "_to",
          "type": "address"
        },
        {
          "internalType": "uint256",
          "name": "_tokenId",
          "type": "uint256"
        }
      ],
      "name": "transferFrom",
      "outputs": [],
      "stateMutability": "nonpayable",
      "type": "function"
    },
    {
      "inputs": [
        {
          "internalType": "address",
          "name": "_newOwner",
          "type": "address"
        }
      ],
      "name": "transferOwnership",
      "outputs": [],
      "stateMutability": "nonpayable",
      "type": "function"
    },
    {
      "inputs": [
        {
          "internalType": "address",
          "name": "_buyer",
          "type": "address"
        },
        {
          "internalType": "address",
          "name": "_seller",
          "type": "address"
        },
        {
          "internalType": "uint256",
          "name": "weiprice",
          "type": "uint256"
        },
        {
          "internalType": "uint256",
          "name": "id",
          "type": "uint256"
        },
        {
          "internalType": "string",
          "name": "_uri",
          "type": "string"
        }
      ],
      "name": "purchase",
      "outputs": [],
      "stateMutability": "payable",
      "type": "function"
    },
    {
      "inputs": [
        {
          "internalType": "uint256",
          "name": "_tokenId",
          "type": "uint256"
        }
      ],
      "name": "burn",
      "outputs": [],
      "stateMutability": "nonpayable",
      "type": "function"
    }
  ],
  "bytecode": "0x60806040526040516200372b3803806200372b8339818101604052810190620000299190620002b9565b60016000806301ffc9a760e01b7bffffffffffffffffffffffffffffffffffffffffffffffffffffffff1916815260200190815260200160002060006101000a81548160ff02191690831515021790555060016000806380ac58cd60e01b7bffffffffffffffffffffffffffffffffffffffffffffffffffffffff1916815260200190815260200160002060006101000a81548160ff0219169083151502179055506001600080635b5e139f60e01b7bffffffffffffffffffffffffffffffffffffffffffffffffffffffff1916815260200190815260200160002060006101000a81548160ff02191690831515021790555033600860006101000a81548173ffffffffffffffffffffffffffffffffffffffff021916908373ffffffffffffffffffffffffffffffffffffffff16021790555081600590805190602001906200017592919062000197565b5080600690805190602001906200018e92919062000197565b5050506200045d565b828054620001a590620003c9565b90600052602060002090601f016020900481019282620001c9576000855562000215565b82601f10620001e457805160ff191683800117855562000215565b8280016001018555821562000215579182015b8281111562000214578251825591602001919060010190620001f7565b5b50905062000224919062000228565b5090565b5b808211156200024357600081600090555060010162000229565b5090565b60006200025e620002588462000360565b6200032c565b9050828152602081018484840111156200027757600080fd5b6200028484828562000393565b509392505050565b600082601f8301126200029e57600080fd5b8151620002b084826020860162000247565b91505092915050565b60008060408385031215620002cd57600080fd5b600083015167ffffffffffffffff811115620002e857600080fd5b620002f6858286016200028c565b925050602083015167ffffffffffffffff8111156200031457600080fd5b62000322858286016200028c565b9150509250929050565b6000604051905081810181811067ffffffffffffffff821117156200035657620003556200042e565b5b8060405250919050565b600067ffffffffffffffff8211156200037e576200037d6200042e565b5b601f19601f8301169050602081019050919050565b60005b83811015620003b357808201518184015260208101905062000396565b83811115620003c3576000848401525b50505050565b60006002820490506001821680620003e257607f821691505b60208210811415620003f957620003f8620003ff565b5b50919050565b7f4e487b7100000000000000000000000000000000000000000000000000000000600052602260045260246000fd5b7f4e487b7100000000000000000000000000000000000000000000000000000000600052604160045260246000fd5b6132be806200046d6000396000f3fe6080604052600436106101145760003560e01c8063860d248a116100a0578063c87b56dd11610064578063c87b56dd146103af578063d9ee7e60146103ec578063e985e9c514610408578063f2fde38b14610445578063f3fe3bc31461046e57610114565b8063860d248a146102dc5780638da5cb5b1461030757806395d89b4114610332578063a22cb4651461035d578063b88d4fde1461038657610114565b806323b872dd116100e757806323b872dd146101e757806342842e0e1461021057806342966c68146102395780636352211e1461026257806370a082311461029f57610114565b806301ffc9a71461011957806306fdde0314610156578063081812fc14610181578063095ea7b3146101be575b600080fd5b34801561012557600080fd5b50610140600480360381019061013b9190612d89565b610499565b60405161014d9190612f8a565b60405180910390f35b34801561016257600080fd5b5061016b610500565b6040516101789190612fa5565b60405180910390f35b34801561018d57600080fd5b506101a860048036038101906101a39190612ddb565b610592565b6040516101b59190612f23565b60405180910390f35b3480156101ca57600080fd5b506101e560048036038101906101e09190612d4d565b6106ad565b005b3480156101f357600080fd5b5061020e60048036038101906102099190612bb0565b610a90565b005b34801561021c57600080fd5b5061023760048036038101906102329190612bb0565b610ee2565b005b34801561024557600080fd5b50610260600480360381019061025b9190612ddb565b610f02565b005b34801561026e57600080fd5b5061028960048036038101906102849190612ddb565b610fd7565b6040516102969190612f23565b60405180910390f35b3480156102ab57600080fd5b506102c660048036038101906102c19190612b4b565b6110bd565b6040516102d39190613007565b60405180910390f35b3480156102e857600080fd5b506102f1611177565b6040516102fe9190612fa5565b60405180910390f35b34801561031357600080fd5b5061031c6111b0565b6040516103299190612f23565b60405180910390f35b34801561033e57600080fd5b506103476111d6565b6040516103549190612fa5565b60405180910390f35b34801561036957600080fd5b50610384600480360381019061037f9190612d11565b611268565b005b34801561039257600080fd5b506103ad60048036038101906103a89190612bff565b611365565b005b3480156103bb57600080fd5b506103d660048036038101906103d19190612ddb565b6113bc565b6040516103e39190612fa5565b60405180910390f35b61040660048036038101906104019190612c7f565b61153f565b005b34801561041457600080fd5b5061042f600480360381019061042a9190612b74565b61161f565b60405161043c9190612f8a565b60405180910390f35b34801561045157600080fd5b5061046c60048036038101906104679190612b4b565b6116b3565b005b34801561047a57600080fd5b506104836118e5565b6040516104909190612fa5565b60405180910390f35b6000806000837bffffffffffffffffffffffffffffffffffffffffffffffffffffffff19167bffffffffffffffffffffffffffffffffffffffffffffffffffffffff1916815260200190815260200160002060009054906101000a900460ff169050919050565b60606005805461050f9061318b565b80601f016020809104026020016040519081016040528092919081815260200182805461053b9061318b565b80156105885780601f1061055d57610100808354040283529160200191610588565b820191906000526020600020905b81548152906001019060200180831161056b57829003601f168201915b5050505050905090565b600081600073ffffffffffffffffffffffffffffffffffffffff166001600083815260200190815260200160002060009054906101000a900473ffffffffffffffffffffffffffffffffffffffff1673ffffffffffffffffffffffffffffffffffffffff1614156040518060400160405280600681526020017f303033303032000000000000000000000000000000000000000000000000000081525090610670576040517f08c379a00000000000000000000000000000000000000000000000000000000081526004016106679190612fa5565b60405180910390fd5b506002600084815260200190815260200160002060009054906101000a900473ffffffffffffffffffffffffffffffffffffffff16915050919050565b8060006001600083815260200190815260200160002060009054906101000a900473ffffffffffffffffffffffffffffffffffffffff1690503373ffffffffffffffffffffffffffffffffffffffff168173ffffffffffffffffffffffffffffffffffffffff1614806107a65750600460008273ffffffffffffffffffffffffffffffffffffffff1673ffffffffffffffffffffffffffffffffffffffff16815260200190815260200160002060003373ffffffffffffffffffffffffffffffffffffffff1673ffffffffffffffffffffffffffffffffffffffff16815260200190815260200160002060009054906101000a900460ff165b6040518060400160405280600681526020017f30303330303300000000000000000000000000000000000000000000000000008152509061081d576040517f08c379a00000000000000000000000000000000000000000000000000000000081526004016108149190612fa5565b60405180910390fd5b5082600073ffffffffffffffffffffffffffffffffffffffff166001600083815260200190815260200160002060009054906101000a900473ffffffffffffffffffffffffffffffffffffffff1673ffffffffffffffffffffffffffffffffffffffff1614156040518060400160405280600681526020017f3030333030320000000000000000000000000000000000000000000000000000815250906108fa576040517f08c379a00000000000000000000000000000000000000000000000000000000081526004016108f19190612fa5565b60405180910390fd5b5060006001600086815260200190815260200160002060009054906101000a900473ffffffffffffffffffffffffffffffffffffffff1690508073ffffffffffffffffffffffffffffffffffffffff168673ffffffffffffffffffffffffffffffffffffffff1614156040518060400160405280600681526020017f3030333030380000000000000000000000000000000000000000000000000000815250906109da576040517f08c379a00000000000000000000000000000000000000000000000000000000081526004016109d19190612fa5565b60405180910390fd5b50856002600087815260200190815260200160002060006101000a81548173ffffffffffffffffffffffffffffffffffffffff021916908373ffffffffffffffffffffffffffffffffffffffff160217905550848673ffffffffffffffffffffffffffffffffffffffff168273ffffffffffffffffffffffffffffffffffffffff167f8c5be1e5ebec7d5bd14f71427d1e84f3dd0314c0f7b2291e5b200ac8c7c3b92560405160405180910390a4505050505050565b8060006001600083815260200190815260200160002060009054906101000a900473ffffffffffffffffffffffffffffffffffffffff1690503373ffffffffffffffffffffffffffffffffffffffff168173ffffffffffffffffffffffffffffffffffffffff161480610b6157503373ffffffffffffffffffffffffffffffffffffffff166002600084815260200190815260200160002060009054906101000a900473ffffffffffffffffffffffffffffffffffffffff1673ffffffffffffffffffffffffffffffffffffffff16145b80610bf25750600460008273ffffffffffffffffffffffffffffffffffffffff1673ffffffffffffffffffffffffffffffffffffffff16815260200190815260200160002060003373ffffffffffffffffffffffffffffffffffffffff1673ffffffffffffffffffffffffffffffffffffffff16815260200190815260200160002060009054906101000a900460ff165b6040518060400160405280600681526020017f303033303034000000000000000000000000000000000000000000000000000081525090610c69576040517f08c379a0000000000000000000000000000000000000000000000000000000008152600401610c609190612fa5565b60405180910390fd5b5082600073ffffffffffffffffffffffffffffffffffffffff166001600083815260200190815260200160002060009054906101000a900473ffffffffffffffffffffffffffffffffffffffff1673ffffffffffffffffffffffffffffffffffffffff1614156040518060400160405280600681526020017f303033303032000000000000000000000000000000000000000000000000000081525090610d46576040517f08c379a0000000000000000000000000000000000000000000000000000000008152600401610d3d9190612fa5565b60405180910390fd5b5060006001600086815260200190815260200160002060009054906101000a900473ffffffffffffffffffffffffffffffffffffffff1690508673ffffffffffffffffffffffffffffffffffffffff168173ffffffffffffffffffffffffffffffffffffffff16146040518060400160405280600681526020017f303033303037000000000000000000000000000000000000000000000000000081525090610e25576040517f08c379a0000000000000000000000000000000000000000000000000000000008152600401610e1c9190612fa5565b60405180910390fd5b50600073ffffffffffffffffffffffffffffffffffffffff168673ffffffffffffffffffffffffffffffffffffffff1614156040518060400160405280600681526020017f303033303031000000000000000000000000000000000000000000000000000081525090610ece576040517f08c379a0000000000000000000000000000000000000000000000000000000008152600401610ec59190612fa5565b60405180910390fd5b50610ed9868661191e565b50505050505050565b610efd838383604051806020016040528060008152506119d3565b505050565b600860009054906101000a900473ffffffffffffffffffffffffffffffffffffffff1673ffffffffffffffffffffffffffffffffffffffff163373ffffffffffffffffffffffffffffffffffffffff16146040518060400160405280600681526020017f303138303031000000000000000000000000000000000000000000000000000081525090610fca576040517f08c379a0000000000000000000000000000000000000000000000000000000008152600401610fc19190612fa5565b60405180910390fd5b50610fd481611fa1565b50565b60006001600083815260200190815260200160002060009054906101000a900473ffffffffffffffffffffffffffffffffffffffff169050600073ffffffffffffffffffffffffffffffffffffffff168173ffffffffffffffffffffffffffffffffffffffff1614156040518060400160405280600681526020017f3030333030320000000000000000000000000000000000000000000000000000815250906110b7576040517f08c379a00000000000000000000000000000000000000000000000000000000081526004016110ae9190612fa5565b60405180910390fd5b50919050565b60008073ffffffffffffffffffffffffffffffffffffffff168273ffffffffffffffffffffffffffffffffffffffff1614156040518060400160405280600681526020017f303033303031000000000000000000000000000000000000000000000000000081525090611166576040517f08c379a000000000000000000000000000000000000000000000000000000000815260040161115d9190612fa5565b60405180910390fd5b5061117082611ff4565b9050919050565b6040518060400160405280600681526020017f303138303032000000000000000000000000000000000000000000000000000081525081565b600860009054906101000a900473ffffffffffffffffffffffffffffffffffffffff1681565b6060600680546111e59061318b565b80601f01602080910402602001604051908101604052809291908181526020018280546112119061318b565b801561125e5780601f106112335761010080835404028352916020019161125e565b820191906000526020600020905b81548152906001019060200180831161124157829003601f168201915b5050505050905090565b80600460003373ffffffffffffffffffffffffffffffffffffffff1673ffffffffffffffffffffffffffffffffffffffff16815260200190815260200160002060008473ffffffffffffffffffffffffffffffffffffffff1673ffffffffffffffffffffffffffffffffffffffff16815260200190815260200160002060006101000a81548160ff0219169083151502179055508173ffffffffffffffffffffffffffffffffffffffff163373ffffffffffffffffffffffffffffffffffffffff167f17307eab39ab6107e8899845ad3d59bd9653f200f220920489ca2b5937696c31836040516113599190612f8a565b60405180910390a35050565b6113b585858585858080601f016020809104026020016040519081016040528093929190818152602001838380828437600081840152601f19601f820116905080830192505050505050506119d3565b5050505050565b606081600073ffffffffffffffffffffffffffffffffffffffff166001600083815260200190815260200160002060009054906101000a900473ffffffffffffffffffffffffffffffffffffffff1673ffffffffffffffffffffffffffffffffffffffff1614156040518060400160405280600681526020017f30303330303200000000000000000000000000000000000000000000000000008152509061149a576040517f08c379a00000000000000000000000000000000000000000000000000000000081526004016114919190612fa5565b60405180910390fd5b506007600084815260200190815260200160002080546114b99061318b565b80601f01602080910402602001604051908101604052809291908181526020018280546114e59061318b565b80156115325780601f1061150757610100808354040283529160200191611532565b820191906000526020600020905b81548152906001019060200180831161151557829003601f168201915b5050505050915050919050565b60003411611582576040517f08c379a000000000000000000000000000000000000000000000000000000000815260040161157990612fc7565b60405180910390fd5b8334146115c4576040517f08c379a00000000000000000000000000000000000000000000000000000000081526004016115bb90612fe7565b60405180910390fd5b6115d08684848461203d565b8473ffffffffffffffffffffffffffffffffffffffff166108fc349081150290604051600060405180830381858888f19350505050158015611616573d6000803e3d6000fd5b50505050505050565b6000600460008473ffffffffffffffffffffffffffffffffffffffff1673ffffffffffffffffffffffffffffffffffffffff16815260200190815260200160002060008373ffffffffffffffffffffffffffffffffffffffff1673ffffffffffffffffffffffffffffffffffffffff16815260200190815260200160002060009054906101000a900460ff16905092915050565b600860009054906101000a900473ffffffffffffffffffffffffffffffffffffffff1673ffffffffffffffffffffffffffffffffffffffff163373ffffffffffffffffffffffffffffffffffffffff16146040518060400160405280600681526020017f30313830303100000000000000000000000000000000000000000000000000008152509061177b576040517f08c379a00000000000000000000000000000000000000000000000000000000081526004016117729190612fa5565b60405180910390fd5b50600073ffffffffffffffffffffffffffffffffffffffff168173ffffffffffffffffffffffffffffffffffffffff1614156040518060400160405280600681526020017f303138303032000000000000000000000000000000000000000000000000000081525090611824576040517f08c379a000000000000000000000000000000000000000000000000000000000815260040161181b9190612fa5565b60405180910390fd5b508073ffffffffffffffffffffffffffffffffffffffff16600860009054906101000a900473ffffffffffffffffffffffffffffffffffffffff1673ffffffffffffffffffffffffffffffffffffffff167f8be0079c531659141344cd1fd0a4f28419497f9722a3daafe3b4186f6b6457e060405160405180910390a380600860006101000a81548173ffffffffffffffffffffffffffffffffffffffff021916908373ffffffffffffffffffffffffffffffffffffffff16021790555050565b6040518060400160405280600681526020017f303138303031000000000000000000000000000000000000000000000000000081525081565b60006001600083815260200190815260200160002060009054906101000a900473ffffffffffffffffffffffffffffffffffffffff16905061195f8261209b565b611969818361213c565b61197383836122df565b818373ffffffffffffffffffffffffffffffffffffffff168273ffffffffffffffffffffffffffffffffffffffff167fddf252ad1be2c89b69c2b068fc378daa952ba7f163c4a11628f55a4df523b3ef60405160405180910390a4505050565b8160006001600083815260200190815260200160002060009054906101000a900473ffffffffffffffffffffffffffffffffffffffff1690503373ffffffffffffffffffffffffffffffffffffffff168173ffffffffffffffffffffffffffffffffffffffff161480611aa457503373ffffffffffffffffffffffffffffffffffffffff166002600084815260200190815260200160002060009054906101000a900473ffffffffffffffffffffffffffffffffffffffff1673ffffffffffffffffffffffffffffffffffffffff16145b80611b355750600460008273ffffffffffffffffffffffffffffffffffffffff1673ffffffffffffffffffffffffffffffffffffffff16815260200190815260200160002060003373ffffffffffffffffffffffffffffffffffffffff1673ffffffffffffffffffffffffffffffffffffffff16815260200190815260200160002060009054906101000a900460ff165b6040518060400160405280600681526020017f303033303034000000000000000000000000000000000000000000000000000081525090611bac576040517f08c379a0000000000000000000000000000000000000000000000000000000008152600401611ba39190612fa5565b60405180910390fd5b5083600073ffffffffffffffffffffffffffffffffffffffff166001600083815260200190815260200160002060009054906101000a900473ffffffffffffffffffffffffffffffffffffffff1673ffffffffffffffffffffffffffffffffffffffff1614156040518060400160405280600681526020017f303033303032000000000000000000000000000000000000000000000000000081525090611c89576040517f08c379a0000000000000000000000000000000000000000000000000000000008152600401611c809190612fa5565b60405180910390fd5b5060006001600087815260200190815260200160002060009054906101000a900473ffffffffffffffffffffffffffffffffffffffff1690508773ffffffffffffffffffffffffffffffffffffffff168173ffffffffffffffffffffffffffffffffffffffff16146040518060400160405280600681526020017f303033303037000000000000000000000000000000000000000000000000000081525090611d68576040517f08c379a0000000000000000000000000000000000000000000000000000000008152600401611d5f9190612fa5565b60405180910390fd5b50600073ffffffffffffffffffffffffffffffffffffffff168773ffffffffffffffffffffffffffffffffffffffff1614156040518060400160405280600681526020017f303033303031000000000000000000000000000000000000000000000000000081525090611e11576040517f08c379a0000000000000000000000000000000000000000000000000000000008152600401611e089190612fa5565b60405180910390fd5b50611e1c878761191e565b611e3b8773ffffffffffffffffffffffffffffffffffffffff1661249f565b15611f975760008773ffffffffffffffffffffffffffffffffffffffff1663150b7a02338b8a8a6040518563ffffffff1660e01b8152600401611e819493929190612f3e565b602060405180830381600087803b158015611e9b57600080fd5b505af1158015611eaf573d6000803e3d6000fd5b505050506040513d601f19601f82011682018060405250810190611ed39190612db2565b905063150b7a0260e01b7bffffffffffffffffffffffffffffffffffffffffffffffffffffffff1916817bffffffffffffffffffffffffffffffffffffffffffffffffffffffff1916146040518060400160405280600681526020017f303033303035000000000000000000000000000000000000000000000000000081525090611f94576040517f08c379a0000000000000000000000000000000000000000000000000000000008152600401611f8b9190612fa5565b60405180910390fd5b50505b5050505050505050565b611faa816124ea565b6000600760008381526020019081526020016000208054611fca9061318b565b905014611ff157600760008281526020019081526020016000206000611ff0919061296b565b5b50565b6000600360008373ffffffffffffffffffffffffffffffffffffffff1673ffffffffffffffffffffffffffffffffffffffff168152602001908152602001600020549050919050565b6120478484612673565b6120958383838080601f016020809104026020016040519081016040528093929190818152602001838380828437600081840152601f19601f82011690508083019250505050505050612861565b50505050565b600073ffffffffffffffffffffffffffffffffffffffff166002600083815260200190815260200160002060009054906101000a900473ffffffffffffffffffffffffffffffffffffffff1673ffffffffffffffffffffffffffffffffffffffff1614612139576002600082815260200190815260200160002060006101000a81549073ffffffffffffffffffffffffffffffffffffffff02191690555b50565b8173ffffffffffffffffffffffffffffffffffffffff166001600083815260200190815260200160002060009054906101000a900473ffffffffffffffffffffffffffffffffffffffff1673ffffffffffffffffffffffffffffffffffffffff16146040518060400160405280600681526020017f303033303037000000000000000000000000000000000000000000000000000081525090612215576040517f08c379a000000000000000000000000000000000000000000000000000000000815260040161220c9190612fa5565b60405180910390fd5b506001600360008473ffffffffffffffffffffffffffffffffffffffff1673ffffffffffffffffffffffffffffffffffffffff1681526020019081526020016000205461226291906130b0565b600360008473ffffffffffffffffffffffffffffffffffffffff1673ffffffffffffffffffffffffffffffffffffffff168152602001908152602001600020819055506001600082815260200190815260200160002060006101000a81549073ffffffffffffffffffffffffffffffffffffffff02191690555050565b600073ffffffffffffffffffffffffffffffffffffffff166001600083815260200190815260200160002060009054906101000a900473ffffffffffffffffffffffffffffffffffffffff1673ffffffffffffffffffffffffffffffffffffffff16146040518060400160405280600681526020017f3030333030360000000000000000000000000000000000000000000000000000815250906123b9576040517f08c379a00000000000000000000000000000000000000000000000000000000081526004016123b09190612fa5565b60405180910390fd5b50816001600083815260200190815260200160002060006101000a81548173ffffffffffffffffffffffffffffffffffffffff021916908373ffffffffffffffffffffffffffffffffffffffff1602179055506001600360008473ffffffffffffffffffffffffffffffffffffffff1673ffffffffffffffffffffffffffffffffffffffff16815260200190815260200160002054612458919061305a565b600360008473ffffffffffffffffffffffffffffffffffffffff1673ffffffffffffffffffffffffffffffffffffffff168152602001908152602001600020819055505050565b60008060007fc5d2460186f7233c927e7db2dcc703c0e500b653ca82273b7bfad8045d85a47060001b9050833f91506000801b82141580156124e15750808214155b92505050919050565b80600073ffffffffffffffffffffffffffffffffffffffff166001600083815260200190815260200160002060009054906101000a900473ffffffffffffffffffffffffffffffffffffffff1673ffffffffffffffffffffffffffffffffffffffff1614156040518060400160405280600681526020017f3030333030320000000000000000000000000000000000000000000000000000815250906125c6576040517f08c379a00000000000000000000000000000000000000000000000000000000081526004016125bd9190612fa5565b60405180910390fd5b5060006001600084815260200190815260200160002060009054906101000a900473ffffffffffffffffffffffffffffffffffffffff1690506126088361209b565b612612818461213c565b82600073ffffffffffffffffffffffffffffffffffffffff168273ffffffffffffffffffffffffffffffffffffffff167fddf252ad1be2c89b69c2b068fc378daa952ba7f163c4a11628f55a4df523b3ef60405160405180910390a4505050565b600073ffffffffffffffffffffffffffffffffffffffff168273ffffffffffffffffffffffffffffffffffffffff1614156040518060400160405280600681526020017f30303330303100000000000000000000000000000000000000000000000000008152509061271b576040517f08c379a00000000000000000000000000000000000000000000000000000000081526004016127129190612fa5565b60405180910390fd5b50600073ffffffffffffffffffffffffffffffffffffffff166001600083815260200190815260200160002060009054906101000a900473ffffffffffffffffffffffffffffffffffffffff1673ffffffffffffffffffffffffffffffffffffffff16146040518060400160405280600681526020017f3030333030360000000000000000000000000000000000000000000000000000815250906127f6576040517f08c379a00000000000000000000000000000000000000000000000000000000081526004016127ed9190612fa5565b60405180910390fd5b5061280182826122df565b808273ffffffffffffffffffffffffffffffffffffffff16600073ffffffffffffffffffffffffffffffffffffffff167fddf252ad1be2c89b69c2b068fc378daa952ba7f163c4a11628f55a4df523b3ef60405160405180910390a45050565b81600073ffffffffffffffffffffffffffffffffffffffff166001600083815260200190815260200160002060009054906101000a900473ffffffffffffffffffffffffffffffffffffffff1673ffffffffffffffffffffffffffffffffffffffff1614156040518060400160405280600681526020017f30303330303200000000000000000000000000000000000000000000000000008152509061293d576040517f08c379a00000000000000000000000000000000000000000000000000000000081526004016129349190612fa5565b60405180910390fd5b50816007600085815260200190815260200160002090805190602001906129659291906129ab565b50505050565b5080546129779061318b565b6000825580601f1061298957506129a8565b601f0160209004906000526020600020908101906129a79190612a31565b5b50565b8280546129b79061318b565b90600052602060002090601f0160209004810192826129d95760008555612a20565b82601f106129f257805160ff1916838001178555612a20565b82800160010185558215612a20579182015b82811115612a1f578251825591602001919060010190612a04565b5b509050612a2d9190612a31565b5090565b5b80821115612a4a576000816000905550600101612a32565b5090565b600081359050612a5d8161322c565b92915050565b600081359050612a7281613243565b92915050565b600081359050612a878161325a565b92915050565b600081519050612a9c8161325a565b92915050565b60008083601f840112612ab457600080fd5b8235905067ffffffffffffffff811115612acd57600080fd5b602083019150836001820283011115612ae557600080fd5b9250929050565b60008083601f840112612afe57600080fd5b8235905067ffffffffffffffff811115612b1757600080fd5b602083019150836001820283011115612b2f57600080fd5b9250929050565b600081359050612b4581613271565b92915050565b600060208284031215612b5d57600080fd5b6000612b6b84828501612a4e565b91505092915050565b60008060408385031215612b8757600080fd5b6000612b9585828601612a4e565b9250506020612ba685828601612a4e565b9150509250929050565b600080600060608486031215612bc557600080fd5b6000612bd386828701612a4e565b9350506020612be486828701612a4e565b9250506040612bf586828701612b36565b9150509250925092565b600080600080600060808688031215612c1757600080fd5b6000612c2588828901612a4e565b9550506020612c3688828901612a4e565b9450506040612c4788828901612b36565b935050606086013567ffffffffffffffff811115612c6457600080fd5b612c7088828901612aa2565b92509250509295509295909350565b60008060008060008060a08789031215612c9857600080fd5b6000612ca689828a01612a4e565b9650506020612cb789828a01612a4e565b9550506040612cc889828a01612b36565b9450506060612cd989828a01612b36565b935050608087013567ffffffffffffffff811115612cf657600080fd5b612d0289828a01612aec565b92509250509295509295509295565b60008060408385031215612d2457600080fd5b6000612d3285828601612a4e565b9250506020612d4385828601612a63565b9150509250929050565b60008060408385031215612d6057600080fd5b6000612d6e85828601612a4e565b9250506020612d7f85828601612b36565b9150509250929050565b600060208284031215612d9b57600080fd5b6000612da984828501612a78565b91505092915050565b600060208284031215612dc457600080fd5b6000612dd284828501612a8d565b91505092915050565b600060208284031215612ded57600080fd5b6000612dfb84828501612b36565b91505092915050565b612e0d816130e4565b82525050565b612e1c816130f6565b82525050565b6000612e2d82613022565b612e378185613038565b9350612e47818560208601613158565b612e508161321b565b840191505092915050565b6000612e668261302d565b612e708185613049565b9350612e80818560208601613158565b612e898161321b565b840191505092915050565b6000612ea1600d83613049565b91507f4e6f2045746865722053656e74000000000000000000000000000000000000006000830152602082019050919050565b6000612ee1601283613049565b91507f496e73756666696369656e742046756e647300000000000000000000000000006000830152602082019050919050565b612f1d8161314e565b82525050565b6000602082019050612f386000830184612e04565b92915050565b6000608082019050612f536000830187612e04565b612f606020830186612e04565b612f6d6040830185612f14565b8181036060830152612f7f8184612e22565b905095945050505050565b6000602082019050612f9f6000830184612e13565b92915050565b60006020820190508181036000830152612fbf8184612e5b565b905092915050565b60006020820190508181036000830152612fe081612e94565b9050919050565b6000602082019050818103600083015261300081612ed4565b9050919050565b600060208201905061301c6000830184612f14565b92915050565b600081519050919050565b600081519050919050565b600082825260208201905092915050565b600082825260208201905092915050565b60006130658261314e565b91506130708361314e565b9250827fffffffffffffffffffffffffffffffffffffffffffffffffffffffffffffffff038211156130a5576130a46131bd565b5b828201905092915050565b60006130bb8261314e565b91506130c68361314e565b9250828210156130d9576130d86131bd565b5b828203905092915050565b60006130ef8261312e565b9050919050565b60008115159050919050565b60007fffffffff0000000000000000000000000000000000000000000000000000000082169050919050565b600073ffffffffffffffffffffffffffffffffffffffff82169050919050565b6000819050919050565b60005b8381101561317657808201518184015260208101905061315b565b83811115613185576000848401525b50505050565b600060028204905060018216806131a357607f821691505b602082108114156131b7576131b66131ec565b5b50919050565b7f4e487b7100000000000000000000000000000000000000000000000000000000600052601160045260246000fd5b7f4e487b7100000000000000000000000000000000000000000000000000000000600052602260045260246000fd5b6000601f19601f8301169050919050565b613235816130e4565b811461324057600080fd5b50565b61324c816130f6565b811461325757600080fd5b50565b61326381613102565b811461326e57600080fd5b50565b61327a8161314e565b811461328557600080fd5b5056fea26469706673582212201881bb0ff4db20f0d6fce14259812c1aeeca63cdaff0a7aa478e29345c67a38564736f6c63430008000033",
  "immutableReferences": {},
  "source": "// SPDX-License-Identifier: UNLICENSED\npragma solidity 0.8.0;\n \nimport \"../node_modules/@0xcert/ethereum-erc721/src/contracts/ownership/ownable.sol\";\nimport \"../node_modules/@0xcert/ethereum-erc721/src/contracts/tokens/nf-token-metadata.sol\";\n \ncontract oldPurchasing is NFTokenMetadata, Ownable {\n \n  constructor(string memory _name,string memory _symbol) payable{\n    nftName = _name;\n    nftSymbol = _symbol;\n  }\n\n  function purchase(address _buyer, address _seller, uint256 weiprice, uint256 id, string calldata _uri) public payable{\n      require(msg.value > 0,\"No Ether Sent\");\n      require(msg.value == weiprice, \"Insufficient Funds\");\n      mint(_buyer, id, _uri); //_buyer is owner of the minted token but can't call any functions of this contract\n      payable(_seller).transfer(msg.value); // send the ETH to the seller\n  }\n\n  /**\n   * @dev Mints a new NFT.\n   * @param _to The address that will own the minted NFT.\n   * @param _tokenId of the NFT to be minted by the msg.sender.\n   * @param _uri String representing RFC 3986 URI.\n   */\n   //OWNER here is jack, owner of the contract\n  function mint(address _to,uint256 _tokenId, string calldata _uri) internal{\n    super._mint(_to, _tokenId);\n    super._setTokenUri(_tokenId, _uri);\n  }\n\n  /**\n   * @dev Removes a NFT from owner.\n   * @param _tokenId Which NFT we want to remove.\n   */\n    //OWNER here is jack, owner of the contract\n  function burn(uint256 _tokenId) external onlyOwner{\n    super._burn(_tokenId);\n  }\n //ADD DEV FOR ROYALTIES -- \n  \n\n}",
  "sourcePath": "/Users/jackwerner/pet-shop-tutorial/contracts/oldPurchasing.sol",
  "compiler": {
    "name": "solc",
    "version": "0.8.0+commit.c7dfd78e.Emscripten.clang"
  },
  "schemaVersion": "3.4.2",
  "updatedAt": "2021-08-25T17:05:15.009Z",
  "devdoc": {
    "kind": "dev",
    "methods": {
      "approve(address,uint256)": {
        "details": "Set or reaffirm the approved address for an NFT. This function can be changed to payable.",
        "params": {
          "_approved": "Address to be approved for the given NFT ID.",
          "_tokenId": "ID of the token to be approved."
        }
      },
      "balanceOf(address)": {
        "details": "Returns the number of NFTs owned by `_owner`. NFTs assigned to the zero address are considered invalid, and this function throws for queries about the zero address.",
        "params": {
          "_owner": "Address for whom to query the balance."
        },
        "returns": {
          "_0": "Balance of _owner."
        }
      },
      "burn(uint256)": {
        "details": "Removes a NFT from owner.",
        "params": {
          "_tokenId": "Which NFT we want to remove."
        }
      },
      "getApproved(uint256)": {
        "details": "Get the approved address for a single NFT.",
        "params": {
          "_tokenId": "ID of the NFT to query the approval of."
        },
        "returns": {
          "_0": "Address that _tokenId is approved for."
        }
      },
      "isApprovedForAll(address,address)": {
        "details": "Checks if `_operator` is an approved operator for `_owner`.",
        "params": {
          "_operator": "The address that acts on behalf of the owner.",
          "_owner": "The address that owns the NFTs."
        },
        "returns": {
          "_0": "True if approved for all, false otherwise."
        }
      },
      "name()": {
        "details": "Returns a descriptive name for a collection of NFTokens.",
        "returns": {
          "_name": "Representing name."
        }
      },
      "ownerOf(uint256)": {
        "details": "Returns the address of the owner of the NFT. NFTs assigned to zero address are considered invalid, and queries about them do throw.",
        "params": {
          "_tokenId": "The identifier for an NFT."
        },
        "returns": {
          "_owner": "Address of _tokenId owner."
        }
      },
      "safeTransferFrom(address,address,uint256)": {
        "details": "Transfers the ownership of an NFT from one address to another address. This function can be changed to payable.",
        "params": {
          "_from": "The current owner of the NFT.",
          "_to": "The new owner.",
          "_tokenId": "The NFT to transfer."
        }
      },
      "safeTransferFrom(address,address,uint256,bytes)": {
        "details": "Transfers the ownership of an NFT from one address to another address. This function can be changed to payable.",
        "params": {
          "_data": "Additional data with no specified format, sent in call to `_to`.",
          "_from": "The current owner of the NFT.",
          "_to": "The new owner.",
          "_tokenId": "The NFT to transfer."
        }
      },
      "setApprovalForAll(address,bool)": {
        "details": "Enables or disables approval for a third party (\"operator\") to manage all of `msg.sender`'s assets. It also emits the ApprovalForAll event.",
        "params": {
          "_approved": "True if the operators is approved, false to revoke approval.",
          "_operator": "Address to add to the set of authorized operators."
        }
      },
      "supportsInterface(bytes4)": {
        "details": "Function to check which interfaces are suported by this contract.",
        "params": {
          "_interfaceID": "Id of the interface."
        },
        "returns": {
          "_0": "True if _interfaceID is supported, false otherwise."
        }
      },
      "symbol()": {
        "details": "Returns an abbreviated name for NFTokens.",
        "returns": {
          "_symbol": "Representing symbol."
        }
      },
      "tokenURI(uint256)": {
        "details": "A distinct URI (RFC 3986) for a given NFT.",
        "params": {
          "_tokenId": "Id for which we want uri."
        },
        "returns": {
          "_0": "URI of _tokenId."
        }
      },
      "transferFrom(address,address,uint256)": {
        "details": "Throws unless `msg.sender` is the current owner, an authorized operator, or the approved address for this NFT. Throws if `_from` is not the current owner. Throws if `_to` is the zero address. Throws if `_tokenId` is not a valid NFT. This function can be changed to payable.",
        "params": {
          "_from": "The current owner of the NFT.",
          "_to": "The new owner.",
          "_tokenId": "The NFT to transfer."
        }
      },
      "transferOwnership(address)": {
        "details": "Allows the current owner to transfer control of the contract to a newOwner.",
        "params": {
          "_newOwner": "The address to transfer ownership to."
        }
      }
    },
    "version": 1
  },
  "userdoc": {
    "kind": "user",
    "methods": {
      "approve(address,uint256)": {
        "notice": "The zero address indicates there is no approved address. Throws unless `msg.sender` is the current NFT owner, or an authorized operator of the current owner."
      },
      "getApproved(uint256)": {
        "notice": "Throws if `_tokenId` is not a valid NFT."
      },
      "safeTransferFrom(address,address,uint256)": {
        "notice": "This works identically to the other function with an extra data parameter, except this function just sets data to \"\""
      },
      "safeTransferFrom(address,address,uint256,bytes)": {
        "notice": "Throws unless `msg.sender` is the current owner, an authorized operator, or the approved address for this NFT. Throws if `_from` is not the current owner. Throws if `_to` is the zero address. Throws if `_tokenId` is not a valid NFT. When transfer is complete, this function checks if `_to` is a smart contract (code size > 0). If so, it calls `onERC721Received` on `_to` and throws if the return value is not `bytes4(keccak256(\"onERC721Received(address,uint256,bytes)\"))`."
      },
      "setApprovalForAll(address,bool)": {
        "notice": "This works even if sender doesn't own any tokens at the time."
      },
      "transferFrom(address,address,uint256)": {
        "notice": "The caller is responsible to confirm that `_to` is capable of receiving NFTs or else they maybe be permanently lost."
      }
    },
    "version": 1
  }
}