{
  "contractName": "Purchasing",
  "abi": [
    {
      "anonymous": false,
      "inputs": [
        {
          "indexed": true,
          "internalType": "address",
          "name": "previousOwner",
          "type": "address"
        },
        {
          "indexed": true,
          "internalType": "address",
          "name": "newOwner",
          "type": "address"
        }
      ],
      "name": "OwnershipTransferred",
      "type": "event"
    },
    {
      "anonymous": false,
      "inputs": [
        {
          "indexed": true,
          "internalType": "address",
          "name": "payer",
          "type": "address"
        },
        {
          "indexed": false,
          "internalType": "uint256",
          "name": "tokenId",
          "type": "uint256"
        },
        {
          "indexed": false,
          "internalType": "uint256",
          "name": "amount",
          "type": "uint256"
        },
        {
          "indexed": false,
          "internalType": "uint256",
          "name": "balance",
          "type": "uint256"
        }
      ],
      "name": "Received",
      "type": "event"
    },
    {
      "anonymous": false,
      "inputs": [
        {
          "indexed": true,
          "internalType": "address",
          "name": "payee",
          "type": "address"
        },
        {
          "indexed": false,
          "internalType": "uint256",
          "name": "amount",
          "type": "uint256"
        },
        {
          "indexed": false,
          "internalType": "uint256",
          "name": "balance",
          "type": "uint256"
        }
      ],
      "name": "Sent",
      "type": "event"
    },
    {
      "inputs": [],
      "name": "CANNOT_TRANSFER_TO_ZERO_ADDRESS",
      "outputs": [
        {
          "internalType": "string",
          "name": "",
          "type": "string"
        }
      ],
      "stateMutability": "view",
      "type": "function",
      "constant": true
    },
    {
      "inputs": [],
      "name": "NOT_CURRENT_OWNER",
      "outputs": [
        {
          "internalType": "string",
          "name": "",
          "type": "string"
        }
      ],
      "stateMutability": "view",
      "type": "function",
      "constant": true
    },
    {
      "inputs": [],
      "name": "currentPrice",
      "outputs": [
        {
          "internalType": "uint256",
          "name": "",
          "type": "uint256"
        }
      ],
      "stateMutability": "view",
      "type": "function",
      "constant": true
    },
    {
      "inputs": [],
      "name": "nftAddress",
      "outputs": [
        {
          "internalType": "contract ERC721",
          "name": "",
          "type": "address"
        }
      ],
      "stateMutability": "view",
      "type": "function",
      "constant": true
    },
    {
      "inputs": [],
      "name": "owner",
      "outputs": [
        {
          "internalType": "address",
          "name": "",
          "type": "address"
        }
      ],
      "stateMutability": "view",
      "type": "function",
      "constant": true
    },
    {
      "inputs": [
        {
          "internalType": "address",
          "name": "_newOwner",
          "type": "address"
        }
      ],
      "name": "transferOwnership",
      "outputs": [],
      "stateMutability": "nonpayable",
      "type": "function"
    },
    {
      "inputs": [
        {
          "internalType": "uint256",
          "name": "_tokenId",
          "type": "uint256"
        },
        {
          "internalType": "address",
          "name": "_nftAddress",
          "type": "address"
        },
        {
          "internalType": "uint256",
          "name": "_currentPrice",
          "type": "uint256"
        }
      ],
      "name": "purchaseToken",
      "outputs": [],
      "stateMutability": "payable",
      "type": "function",
      "payable": true
    },
    {
      "inputs": [
        {
          "internalType": "address payable",
          "name": "_payee",
          "type": "address"
        },
        {
          "internalType": "uint256",
          "name": "_amount",
          "type": "uint256"
        }
      ],
      "name": "sendTo",
      "outputs": [],
      "stateMutability": "nonpayable",
      "type": "function"
    },
    {
      "inputs": [
        {
          "internalType": "uint256",
          "name": "_currentPrice",
          "type": "uint256"
        }
      ],
      "name": "setCurrentPrice",
      "outputs": [],
      "stateMutability": "nonpayable",
      "type": "function"
    }
  ],
  "bytecode": "0x608060405234801561001057600080fd5b50336000806101000a81548173ffffffffffffffffffffffffffffffffffffffff021916908373ffffffffffffffffffffffffffffffffffffffff160217905550610eaa806100606000396000f3fe6080604052600436106100865760003560e01c80639b60cc97116100595780639b60cc97146101355780639d1b464a146101515780639e1a00aa1461017c578063f2fde38b146101a5578063f3fe3bc3146101ce57610086565b806318b200711461008b5780635bf8633a146100b4578063860d248a146100df5780638da5cb5b1461010a575b600080fd5b34801561009757600080fd5b506100b260048036038101906100ad9190610b75565b6101f9565b005b3480156100c057600080fd5b506100c96102d7565b6040516100d69190610ca5565b60405180910390f35b3480156100eb57600080fd5b506100f46102fd565b6040516101019190610cc0565b60405180910390f35b34801561011657600080fd5b5061011f610336565b60405161012c9190610c53565b60405180910390f35b61014f600480360381019061014a9190610b9e565b61035a565b005b34801561015d57600080fd5b5061016661063a565b6040516101739190610ce2565b60405180910390f35b34801561018857600080fd5b506101a3600480360381019061019e9190610b39565b610640565b005b3480156101b157600080fd5b506101cc60048036038101906101c79190610ae7565b61082d565b005b3480156101da57600080fd5b506101e3610a5a565b6040516101f09190610cc0565b60405180910390f35b60008054906101000a900473ffffffffffffffffffffffffffffffffffffffff1673ffffffffffffffffffffffffffffffffffffffff163373ffffffffffffffffffffffffffffffffffffffff16146040518060400160405280600681526020017f3031383030310000000000000000000000000000000000000000000000000000815250906102bf576040517f08c379a00000000000000000000000000000000000000000000000000000000081526004016102b69190610cc0565b60405180910390fd5b50600081116102cd57600080fd5b8060028190555050565b600160009054906101000a900473ffffffffffffffffffffffffffffffffffffffff1681565b6040518060400160405280600681526020017f303138303032000000000000000000000000000000000000000000000000000081525081565b60008054906101000a900473ffffffffffffffffffffffffffffffffffffffff1681565b600073ffffffffffffffffffffffffffffffffffffffff163373ffffffffffffffffffffffffffffffffffffffff16141580156103c357503073ffffffffffffffffffffffffffffffffffffffff163373ffffffffffffffffffffffffffffffffffffffff1614155b6103cc57600080fd5b6002543410156103db57600080fd5b600073ffffffffffffffffffffffffffffffffffffffff168273ffffffffffffffffffffffffffffffffffffffff161415801561044457503073ffffffffffffffffffffffffffffffffffffffff168273ffffffffffffffffffffffffffffffffffffffff1614155b61044d57600080fd5b6000811161045a57600080fd5b81600160006101000a81548173ffffffffffffffffffffffffffffffffffffffff021916908373ffffffffffffffffffffffffffffffffffffffff160217905550806002819055506000600160009054906101000a900473ffffffffffffffffffffffffffffffffffffffff1673ffffffffffffffffffffffffffffffffffffffff16636352211e856040518263ffffffff1660e01b81526004016104ff9190610ce2565b60206040518083038186803b15801561051757600080fd5b505afa15801561052b573d6000803e3d6000fd5b505050506040513d601f19601f8201168201806040525081019061054f9190610b10565b9050600160009054906101000a900473ffffffffffffffffffffffffffffffffffffffff1673ffffffffffffffffffffffffffffffffffffffff166342842e0e8233876040518463ffffffff1660e01b81526004016105b093929190610c6e565b600060405180830381600087803b1580156105ca57600080fd5b505af11580156105de573d6000803e3d6000fd5b505050503373ffffffffffffffffffffffffffffffffffffffff167f02d08db2db312fc60b41a046c46a7772a6c2dcdca0c32a9d3423c6dcbde693e985344760405161062c93929190610d26565b60405180910390a250505050565b60025481565b60008054906101000a900473ffffffffffffffffffffffffffffffffffffffff1673ffffffffffffffffffffffffffffffffffffffff163373ffffffffffffffffffffffffffffffffffffffff16146040518060400160405280600681526020017f303138303031000000000000000000000000000000000000000000000000000081525090610706576040517f08c379a00000000000000000000000000000000000000000000000000000000081526004016106fd9190610cc0565b60405180910390fd5b50600073ffffffffffffffffffffffffffffffffffffffff168273ffffffffffffffffffffffffffffffffffffffff161415801561077057503073ffffffffffffffffffffffffffffffffffffffff168273ffffffffffffffffffffffffffffffffffffffff1614155b61077957600080fd5b6000811180156107895750478111155b61079257600080fd5b8173ffffffffffffffffffffffffffffffffffffffff166108fc829081150290604051600060405180830381858888f193505050501580156107d8573d6000803e3d6000fd5b508173ffffffffffffffffffffffffffffffffffffffff167f6356739d963da01dc3533acba7203430fcc14f2175d48a8dd0973d7db49c785e8247604051610821929190610cfd565b60405180910390a25050565b60008054906101000a900473ffffffffffffffffffffffffffffffffffffffff1673ffffffffffffffffffffffffffffffffffffffff163373ffffffffffffffffffffffffffffffffffffffff16146040518060400160405280600681526020017f3031383030310000000000000000000000000000000000000000000000000000815250906108f3576040517f08c379a00000000000000000000000000000000000000000000000000000000081526004016108ea9190610cc0565b60405180910390fd5b50600073ffffffffffffffffffffffffffffffffffffffff168173ffffffffffffffffffffffffffffffffffffffff1614156040518060400160405280600681526020017f30313830303200000000000000000000000000000000000000000000000000008152509061099c576040517f08c379a00000000000000000000000000000000000000000000000000000000081526004016109939190610cc0565b60405180910390fd5b508073ffffffffffffffffffffffffffffffffffffffff1660008054906101000a900473ffffffffffffffffffffffffffffffffffffffff1673ffffffffffffffffffffffffffffffffffffffff167f8be0079c531659141344cd1fd0a4f28419497f9722a3daafe3b4186f6b6457e060405160405180910390a3806000806101000a81548173ffffffffffffffffffffffffffffffffffffffff021916908373ffffffffffffffffffffffffffffffffffffffff16021790555050565b6040518060400160405280600681526020017f303138303031000000000000000000000000000000000000000000000000000081525081565b600081359050610aa281610e2f565b92915050565b600081519050610ab781610e2f565b92915050565b600081359050610acc81610e46565b92915050565b600081359050610ae181610e5d565b92915050565b600060208284031215610af957600080fd5b6000610b0784828501610a93565b91505092915050565b600060208284031215610b2257600080fd5b6000610b3084828501610aa8565b91505092915050565b60008060408385031215610b4c57600080fd5b6000610b5a85828601610abd565b9250506020610b6b85828601610ad2565b9150509250929050565b600060208284031215610b8757600080fd5b6000610b9584828501610ad2565b91505092915050565b600080600060608486031215610bb357600080fd5b6000610bc186828701610ad2565b9350506020610bd286828701610a93565b9250506040610be386828701610ad2565b9150509250925092565b610bf681610d79565b82525050565b610c0581610dc7565b82525050565b6000610c1682610d5d565b610c208185610d68565b9350610c30818560208601610deb565b610c3981610e1e565b840191505092915050565b610c4d81610dbd565b82525050565b6000602082019050610c686000830184610bed565b92915050565b6000606082019050610c836000830186610bed565b610c906020830185610bed565b610c9d6040830184610c44565b949350505050565b6000602082019050610cba6000830184610bfc565b92915050565b60006020820190508181036000830152610cda8184610c0b565b905092915050565b6000602082019050610cf76000830184610c44565b92915050565b6000604082019050610d126000830185610c44565b610d1f6020830184610c44565b9392505050565b6000606082019050610d3b6000830186610c44565b610d486020830185610c44565b610d556040830184610c44565b949350505050565b600081519050919050565b600082825260208201905092915050565b6000610d8482610d9d565b9050919050565b6000610d9682610d9d565b9050919050565b600073ffffffffffffffffffffffffffffffffffffffff82169050919050565b6000819050919050565b6000610dd282610dd9565b9050919050565b6000610de482610d9d565b9050919050565b60005b83811015610e09578082015181840152602081019050610dee565b83811115610e18576000848401525b50505050565b6000601f19601f8301169050919050565b610e3881610d79565b8114610e4357600080fd5b50565b610e4f81610d8b565b8114610e5a57600080fd5b50565b610e6681610dbd565b8114610e7157600080fd5b5056fea2646970667358221220101a60d69c817092ff7c69095130ec8949628991a4ddebbf8d5c4d8f05e73a4764736f6c63430008000033",
  "immutableReferences": {},
  "source": "//SPDX-License-Identifier: UNLICENSED\npragma solidity 0.8.0;\n\nimport \"../node_modules/@0xcert/ethereum-erc721/src/contracts/ownership/ownable.sol\";\nimport \"../node_modules/@0xcert/ethereum-erc721/src/contracts/tokens/nf-token-metadata.sol\";\n\ncontract Purchasing is Ownable {\n\nevent Sent(address indexed payee, uint256 amount, uint256 balance);\nevent Received(address indexed payer, uint tokenId, uint256 amount, uint256 balance);\n\nERC721 public nftAddress;\nuint256 public currentPrice;\n\n//seperate mint contract for each token --> seperate contract address and thus price\n\n/**\n* @dev Purchase _tokenId\n* @param _tokenId uint256 token ID (painting number)\n*/\nfunction purchaseToken(uint256 _tokenId, address _nftAddress, uint256 _currentPrice) public payable {\n    require(msg.sender != address(0) && msg.sender != address(this));\n    require(msg.value >= currentPrice);\n\trequire(_nftAddress != address(0) && _nftAddress != address(this));\n    require(_currentPrice > 0);\n    nftAddress = ERC721(_nftAddress);\n    currentPrice = _currentPrice;\n    address tokenSeller = nftAddress.ownerOf(_tokenId);\n    nftAddress.safeTransferFrom(tokenSeller, msg.sender, _tokenId);\n    emit Received(msg.sender, _tokenId, msg.value, address(this).balance);\n}\n\n/**\n* @dev send / withdraw _amount to _payee\n*/\nfunction sendTo(address payable _payee, uint256 _amount) public onlyOwner {\n    require(_payee != address(0) && _payee != address(this));\n    require(_amount > 0 && _amount <= address(this).balance);\n    _payee.transfer(_amount);\n    emit Sent(_payee, _amount, address(this).balance);\n}\n\n/**\n* @dev Updates _currentPrice\n* @dev Throws if _currentPrice is zero\n*/\nfunction setCurrentPrice(uint256 _currentPrice) public onlyOwner {\n    require(_currentPrice > 0);\n    currentPrice = _currentPrice;\n}\n\n}",
  "sourcePath": "/Users/jackwerner/pet-shop-tutorial/contracts/Purchasing.sol",
  "compiler": {
    "name": "solc",
    "version": "0.8.0+commit.c7dfd78e.Emscripten.clang"
  },
  "schemaVersion": "3.4.2",
  "updatedAt": "2021-08-31T01:58:46.603Z",
  "networkType": "ethereum",
  "devdoc": {
    "kind": "dev",
    "methods": {
      "purchaseToken(uint256,address,uint256)": {
        "details": "Purchase _tokenId",
        "params": {
          "_tokenId": "uint256 token ID (painting number)"
        }
      },
      "sendTo(address,uint256)": {
        "details": "send / withdraw _amount to _payee"
      },
      "setCurrentPrice(uint256)": {
        "details": "Updates _currentPriceThrows if _currentPrice is zero"
      },
      "transferOwnership(address)": {
        "details": "Allows the current owner to transfer control of the contract to a newOwner.",
        "params": {
          "_newOwner": "The address to transfer ownership to."
        }
      }
    },
    "version": 1
  },
  "userdoc": {
    "kind": "user",
    "methods": {},
    "version": 1
  }
}