{
  "contractName": "thirdparty",
  "abi": [
    {
      "inputs": [
        {
          "internalType": "address",
          "name": "_nftAddress",
          "type": "address"
        },
        {
          "internalType": "uint256",
          "name": "_currentPrice",
          "type": "uint256"
        }
      ],
      "stateMutability": "nonpayable",
      "type": "constructor"
    },
    {
      "anonymous": false,
      "inputs": [
        {
          "indexed": true,
          "internalType": "address",
          "name": "previousOwner",
          "type": "address"
        },
        {
          "indexed": true,
          "internalType": "address",
          "name": "newOwner",
          "type": "address"
        }
      ],
      "name": "OwnershipTransferred",
      "type": "event"
    },
    {
      "anonymous": false,
      "inputs": [
        {
          "indexed": true,
          "internalType": "address",
          "name": "payer",
          "type": "address"
        },
        {
          "indexed": false,
          "internalType": "uint256",
          "name": "tokenId",
          "type": "uint256"
        },
        {
          "indexed": false,
          "internalType": "uint256",
          "name": "amount",
          "type": "uint256"
        },
        {
          "indexed": false,
          "internalType": "uint256",
          "name": "balance",
          "type": "uint256"
        }
      ],
      "name": "Received",
      "type": "event"
    },
    {
      "anonymous": false,
      "inputs": [
        {
          "indexed": true,
          "internalType": "address",
          "name": "payee",
          "type": "address"
        },
        {
          "indexed": false,
          "internalType": "uint256",
          "name": "amount",
          "type": "uint256"
        },
        {
          "indexed": false,
          "internalType": "uint256",
          "name": "balance",
          "type": "uint256"
        }
      ],
      "name": "Sent",
      "type": "event"
    },
    {
      "inputs": [],
      "name": "CANNOT_TRANSFER_TO_ZERO_ADDRESS",
      "outputs": [
        {
          "internalType": "string",
          "name": "",
          "type": "string"
        }
      ],
      "stateMutability": "view",
      "type": "function"
    },
    {
      "inputs": [],
      "name": "NOT_CURRENT_OWNER",
      "outputs": [
        {
          "internalType": "string",
          "name": "",
          "type": "string"
        }
      ],
      "stateMutability": "view",
      "type": "function"
    },
    {
      "inputs": [],
      "name": "currentPrice",
      "outputs": [
        {
          "internalType": "uint256",
          "name": "",
          "type": "uint256"
        }
      ],
      "stateMutability": "view",
      "type": "function"
    },
    {
      "inputs": [],
      "name": "nftAddress",
      "outputs": [
        {
          "internalType": "contract ERC721",
          "name": "",
          "type": "address"
        }
      ],
      "stateMutability": "view",
      "type": "function"
    },
    {
      "inputs": [],
      "name": "owner",
      "outputs": [
        {
          "internalType": "address",
          "name": "",
          "type": "address"
        }
      ],
      "stateMutability": "view",
      "type": "function"
    },
    {
      "inputs": [
        {
          "internalType": "address",
          "name": "_newOwner",
          "type": "address"
        }
      ],
      "name": "transferOwnership",
      "outputs": [],
      "stateMutability": "nonpayable",
      "type": "function"
    },
    {
      "inputs": [
        {
          "internalType": "uint256",
          "name": "_tokenId",
          "type": "uint256"
        }
      ],
      "name": "purchaseToken",
      "outputs": [],
      "stateMutability": "payable",
      "type": "function"
    },
    {
      "inputs": [
        {
          "internalType": "address payable",
          "name": "_payee",
          "type": "address"
        },
        {
          "internalType": "uint256",
          "name": "_amount",
          "type": "uint256"
        }
      ],
      "name": "sendTo",
      "outputs": [],
      "stateMutability": "nonpayable",
      "type": "function"
    },
    {
      "inputs": [
        {
          "internalType": "uint256",
          "name": "_currentPrice",
          "type": "uint256"
        }
      ],
      "name": "setCurrentPrice",
      "outputs": [],
      "stateMutability": "nonpayable",
      "type": "function"
    }
  ],
  "bytecode": "0x60806040523480156200001157600080fd5b5060405162000fcc38038062000fcc833981810160405281019062000037919062000177565b336000806101000a81548173ffffffffffffffffffffffffffffffffffffffff021916908373ffffffffffffffffffffffffffffffffffffffff160217905550600073ffffffffffffffffffffffffffffffffffffffff168273ffffffffffffffffffffffffffffffffffffffff1614158015620000e157503073ffffffffffffffffffffffffffffffffffffffff168273ffffffffffffffffffffffffffffffffffffffff1614155b620000eb57600080fd5b60008111620000f957600080fd5b81600160006101000a81548173ffffffffffffffffffffffffffffffffffffffff021916908373ffffffffffffffffffffffffffffffffffffffff1602179055508060028190555050506200022a565b6000815190506200015a81620001f6565b92915050565b600081519050620001718162000210565b92915050565b600080604083850312156200018b57600080fd5b60006200019b8582860162000149565b9250506020620001ae8582860162000160565b9150509250929050565b6000620001c582620001cc565b9050919050565b600073ffffffffffffffffffffffffffffffffffffffff82169050919050565b6000819050919050565b6200020181620001b8565b81146200020d57600080fd5b50565b6200021b81620001ec565b81146200022757600080fd5b50565b610d92806200023a6000396000f3fe6080604052600436106100865760003560e01c80639d1b464a116100595780639d1b464a146101355780639e1a00aa14610160578063c2db2c4214610189578063f2fde38b146101a5578063f3fe3bc3146101ce57610086565b806318b200711461008b5780635bf8633a146100b4578063860d248a146100df5780638da5cb5b1461010a575b600080fd5b34801561009757600080fd5b506100b260048036038101906100ad9190610aac565b6101f9565b005b3480156100c057600080fd5b506100c96102d7565b6040516100d69190610b8d565b60405180910390f35b3480156100eb57600080fd5b506100f46102fd565b6040516101019190610ba8565b60405180910390f35b34801561011657600080fd5b5061011f610336565b60405161012c9190610b3b565b60405180910390f35b34801561014157600080fd5b5061014a61035a565b6040516101579190610bca565b60405180910390f35b34801561016c57600080fd5b5061018760048036038101906101829190610a70565b610360565b005b6101a3600480360381019061019e9190610aac565b61054d565b005b3480156101b157600080fd5b506101cc60048036038101906101c79190610a1e565b610764565b005b3480156101da57600080fd5b506101e3610991565b6040516101f09190610ba8565b60405180910390f35b60008054906101000a900473ffffffffffffffffffffffffffffffffffffffff1673ffffffffffffffffffffffffffffffffffffffff163373ffffffffffffffffffffffffffffffffffffffff16146040518060400160405280600681526020017f3031383030310000000000000000000000000000000000000000000000000000815250906102bf576040517f08c379a00000000000000000000000000000000000000000000000000000000081526004016102b69190610ba8565b60405180910390fd5b50600081116102cd57600080fd5b8060028190555050565b600160009054906101000a900473ffffffffffffffffffffffffffffffffffffffff1681565b6040518060400160405280600681526020017f303138303032000000000000000000000000000000000000000000000000000081525081565b60008054906101000a900473ffffffffffffffffffffffffffffffffffffffff1681565b60025481565b60008054906101000a900473ffffffffffffffffffffffffffffffffffffffff1673ffffffffffffffffffffffffffffffffffffffff163373ffffffffffffffffffffffffffffffffffffffff16146040518060400160405280600681526020017f303138303031000000000000000000000000000000000000000000000000000081525090610426576040517f08c379a000000000000000000000000000000000000000000000000000000000815260040161041d9190610ba8565b60405180910390fd5b50600073ffffffffffffffffffffffffffffffffffffffff168273ffffffffffffffffffffffffffffffffffffffff161415801561049057503073ffffffffffffffffffffffffffffffffffffffff168273ffffffffffffffffffffffffffffffffffffffff1614155b61049957600080fd5b6000811180156104a95750478111155b6104b257600080fd5b8173ffffffffffffffffffffffffffffffffffffffff166108fc829081150290604051600060405180830381858888f193505050501580156104f8573d6000803e3d6000fd5b508173ffffffffffffffffffffffffffffffffffffffff167f6356739d963da01dc3533acba7203430fcc14f2175d48a8dd0973d7db49c785e8247604051610541929190610be5565b60405180910390a25050565b600073ffffffffffffffffffffffffffffffffffffffff163373ffffffffffffffffffffffffffffffffffffffff16141580156105b657503073ffffffffffffffffffffffffffffffffffffffff163373ffffffffffffffffffffffffffffffffffffffff1614155b6105bf57600080fd5b6002543410156105ce57600080fd5b6000600160009054906101000a900473ffffffffffffffffffffffffffffffffffffffff1673ffffffffffffffffffffffffffffffffffffffff16636352211e836040518263ffffffff1660e01b815260040161062b9190610bca565b60206040518083038186803b15801561064357600080fd5b505afa158015610657573d6000803e3d6000fd5b505050506040513d601f19601f8201168201806040525081019061067b9190610a47565b9050600160009054906101000a900473ffffffffffffffffffffffffffffffffffffffff1673ffffffffffffffffffffffffffffffffffffffff166342842e0e8233856040518463ffffffff1660e01b81526004016106dc93929190610b56565b600060405180830381600087803b1580156106f657600080fd5b505af115801561070a573d6000803e3d6000fd5b505050503373ffffffffffffffffffffffffffffffffffffffff167f02d08db2db312fc60b41a046c46a7772a6c2dcdca0c32a9d3423c6dcbde693e983344760405161075893929190610c0e565b60405180910390a25050565b60008054906101000a900473ffffffffffffffffffffffffffffffffffffffff1673ffffffffffffffffffffffffffffffffffffffff163373ffffffffffffffffffffffffffffffffffffffff16146040518060400160405280600681526020017f30313830303100000000000000000000000000000000000000000000000000008152509061082a576040517f08c379a00000000000000000000000000000000000000000000000000000000081526004016108219190610ba8565b60405180910390fd5b50600073ffffffffffffffffffffffffffffffffffffffff168173ffffffffffffffffffffffffffffffffffffffff1614156040518060400160405280600681526020017f3031383030320000000000000000000000000000000000000000000000000000815250906108d3576040517f08c379a00000000000000000000000000000000000000000000000000000000081526004016108ca9190610ba8565b60405180910390fd5b508073ffffffffffffffffffffffffffffffffffffffff1660008054906101000a900473ffffffffffffffffffffffffffffffffffffffff1673ffffffffffffffffffffffffffffffffffffffff167f8be0079c531659141344cd1fd0a4f28419497f9722a3daafe3b4186f6b6457e060405160405180910390a3806000806101000a81548173ffffffffffffffffffffffffffffffffffffffff021916908373ffffffffffffffffffffffffffffffffffffffff16021790555050565b6040518060400160405280600681526020017f303138303031000000000000000000000000000000000000000000000000000081525081565b6000813590506109d981610d17565b92915050565b6000815190506109ee81610d17565b92915050565b600081359050610a0381610d2e565b92915050565b600081359050610a1881610d45565b92915050565b600060208284031215610a3057600080fd5b6000610a3e848285016109ca565b91505092915050565b600060208284031215610a5957600080fd5b6000610a67848285016109df565b91505092915050565b60008060408385031215610a8357600080fd5b6000610a91858286016109f4565b9250506020610aa285828601610a09565b9150509250929050565b600060208284031215610abe57600080fd5b6000610acc84828501610a09565b91505092915050565b610ade81610c61565b82525050565b610aed81610caf565b82525050565b6000610afe82610c45565b610b088185610c50565b9350610b18818560208601610cd3565b610b2181610d06565b840191505092915050565b610b3581610ca5565b82525050565b6000602082019050610b506000830184610ad5565b92915050565b6000606082019050610b6b6000830186610ad5565b610b786020830185610ad5565b610b856040830184610b2c565b949350505050565b6000602082019050610ba26000830184610ae4565b92915050565b60006020820190508181036000830152610bc28184610af3565b905092915050565b6000602082019050610bdf6000830184610b2c565b92915050565b6000604082019050610bfa6000830185610b2c565b610c076020830184610b2c565b9392505050565b6000606082019050610c236000830186610b2c565b610c306020830185610b2c565b610c3d6040830184610b2c565b949350505050565b600081519050919050565b600082825260208201905092915050565b6000610c6c82610c85565b9050919050565b6000610c7e82610c85565b9050919050565b600073ffffffffffffffffffffffffffffffffffffffff82169050919050565b6000819050919050565b6000610cba82610cc1565b9050919050565b6000610ccc82610c85565b9050919050565b60005b83811015610cf1578082015181840152602081019050610cd6565b83811115610d00576000848401525b50505050565b6000601f19601f8301169050919050565b610d2081610c61565b8114610d2b57600080fd5b50565b610d3781610c73565b8114610d4257600080fd5b50565b610d4e81610ca5565b8114610d5957600080fd5b5056fea26469706673582212207964c2c97562d9c945581eea30195463cbc9385b0b9e1dadfc9be9df79922c6364736f6c63430008000033",
  "immutableReferences": {},
  "source": "//SPDX-License-Identifier: UNLICENSED\npragma solidity 0.8.0;\n\nimport \"../node_modules/@0xcert/ethereum-erc721/src/contracts/ownership/ownable.sol\";\nimport \"../node_modules/@0xcert/ethereum-erc721/src/contracts/tokens/nf-token-metadata.sol\";\n\ncontract thirdparty is Ownable {\n\nevent Sent(address indexed payee, uint256 amount, uint256 balance);\nevent Received(address indexed payer, uint tokenId, uint256 amount, uint256 balance);\n\nERC721 public nftAddress;\nuint256 public currentPrice;\n\n//seperate mint contract for each token --> seperate contract address and thus price\nconstructor(address _nftAddress, uint256 _currentPrice) { \n    require(_nftAddress != address(0) && _nftAddress != address(this));\n    require(_currentPrice > 0);\n    nftAddress = ERC721(_nftAddress);\n    currentPrice = _currentPrice;\n}\n\n/**\n* @dev Purchase _tokenId\n* @param _tokenId uint256 token ID (painting number)\n*/\nfunction purchaseToken(uint256 _tokenId) public payable {\n    require(msg.sender != address(0) && msg.sender != address(this));\n    require(msg.value >= currentPrice);\n    //require(nftAddress.exists(_tokenId));\n    address tokenSeller = nftAddress.ownerOf(_tokenId);\n    nftAddress.safeTransferFrom(tokenSeller, msg.sender, _tokenId);\n    emit Received(msg.sender, _tokenId, msg.value, address(this).balance);\n}\n\n/**\n* @dev send / withdraw _amount to _payee\n*/\nfunction sendTo(address payable _payee, uint256 _amount) public onlyOwner {\n    require(_payee != address(0) && _payee != address(this));\n    require(_amount > 0 && _amount <= address(this).balance);\n    _payee.transfer(_amount);\n    emit Sent(_payee, _amount, address(this).balance);\n}\n\n/**\n* @dev Updates _currentPrice\n* @dev Throws if _currentPrice is zero\n*/\nfunction setCurrentPrice(uint256 _currentPrice) public onlyOwner {\n    require(_currentPrice > 0);\n    currentPrice = _currentPrice;\n}\n\n}",
  "sourcePath": "/Users/jackwerner/pet-shop-tutorial/contracts/Purchasing.sol",
  "compiler": {
    "name": "solc",
    "version": "0.8.0+commit.c7dfd78e.Emscripten.clang"
  },
  "schemaVersion": "3.4.2",
  "updatedAt": "2021-08-25T17:02:32.752Z",
  "devdoc": {
    "kind": "dev",
    "methods": {
      "purchaseToken(uint256)": {
        "details": "Purchase _tokenId",
        "params": {
          "_tokenId": "uint256 token ID (painting number)"
        }
      },
      "sendTo(address,uint256)": {
        "details": "send / withdraw _amount to _payee"
      },
      "setCurrentPrice(uint256)": {
        "details": "Updates _currentPriceThrows if _currentPrice is zero"
      },
      "transferOwnership(address)": {
        "details": "Allows the current owner to transfer control of the contract to a newOwner.",
        "params": {
          "_newOwner": "The address to transfer ownership to."
        }
      }
    },
    "version": 1
  },
  "userdoc": {
    "kind": "user",
    "methods": {},
    "version": 1
  }
}